:020000040800F2
:10000000384B012035530408E156040879290408C7
:10001000E5560408E9560408ED56040800000000FF
:10002000000000000000000000000000F15604087D
:10003000F556040800000000F95604086D2904086C
:10004000FD56040801570408055704080957040819
:100050000D570408115704081557040819570408C8
:100060001D57040821570408255704082957040878
:100070002D57040831570408E329040835570408AC
:1000800039570408E5290408892904083D5704085C
:100090004157040845570408495704084D570408B8
:1000A0005157040855570408595704089329040860
:1000B0009D290408A7290408B12904085D570408EC
:1000C0006157040865570408695704086D57040808
:1000D0007157040875570408C5290408CF29040876
:1000E000795704087D570408815704088557040888
:1000F000895704088D57040891570408EF2904080C
:100100009557040899570408BB2904089D5704080B
:10011000A1570408D9290408A5570408A9570408B9
:10012000F9290408AD570408B1570408B557040865
:10013000B9570408BD570408C1570408C557040837
:10014000C9570408CD570408D1570408032A0408E6
:10015000D5570408D9570408DD570408E1570408A7
:10016000E5570408E9570408ED570408F157040857
:10017000F5570408F9570408FD5704080158040806
:100180000558040809580408D1E5EAF3EDE4FB2812
:10019000302D35392900000000000000000000006B
:1001A000000000000000000000000000000000004F
:1001B000000000000000000000000000000000003F
:1001C000000000000000000000000000000000002F
:1001D000000000000000000000000000000000001F
:1001E0000000000000000000000000000A00000005
:1001F00001FF010000000000CCE8EDF3F2FB283025
:100200002D3539290000000000000000000000002A
:1002100000000000000000000000000000000000DE
:1002200000000000000000000000000000000000CE
:1002300000000000000000000000000000000000BE
:1002400000000000000000000000000000000000AE
:100250000000000000000000000000000B00000093
:1002600001FF010000000000D7E0F1FB28302D3233
:100270003329000000000000000000000000000022
:10028000000000000000000000000000000000006E
:10029000000000000000000000000000000000005E
:1002A000000000000000000000000000000000004E
:1002B000000000000000000000000000000000003E
:1002C0000000000000000000000000000C00000022
:1002D00001FF010000000000C4E5EDFC28312D33D2
:1002E00031290000000000000000000000000000B4
:1002F00000000000000000000000000000000000FE
:1003000000000000000000000000000000000000ED
:1003100000000000000000000000000000000000DD
:1003200000000000000000000000000000000000CD
:100330000000000000000000000000000D000000B0
:1003400001FF010000000000CCE5F1FFF628312D8F
:100350003132290000000000000000000000000011
:10036000000000000000000000000000000000008D
:10037000000000000000000000000000000000007D
:10038000000000000000000000000000000000006D
:10039000000000000000000000000000000000005D
:1003A0000000000000000000000000000E0000003F
:1003B00001FF010000000000C3EEE4282B323030C2
:1003C00030290000000000000000000000000000D4
:1003D000000000000000000000000000000000001D
:1003E000000000000000000000000000000000000D
:1003F00000000000000000000000000000000000FD
:1004000000000000000000000000000000000000EC
:100410000000000000000000000000000F000000CD
:1004200001FF010000000000C2F2EEF0E0FF20F248
:10043000EEF7EAE020F7E0F1F2EEF2EDEEE920EA85
:10044000EEF0F0E5EAF2E8F0EEE2EAE820F2EEEAB9
:10045000E028C3F6290000000000000000000000B2
:10046000000000000000000000000000000000008C
:10047000000000000000000000000000000000007C
:100480000000000000000000000000001400000058
:1004900004FF010000010000D2F0E5F2FCFF20F2B1
:1004A000EEF7EAE020F7E0F1F2EEF2EDEEE920EA15
:1004B000EEF0F0E5EAF2E8F0EEE2EAE820F2EEEA49
:1004C000E028C3F629000000000000000000000042
:1004D000000000000000000000000000000000001C
:1004E000000000000000000000000000000000000C
:1004F00000000000000000000000000016000000E6
:1005000004FF010000010000CFE5F0E2FBE920EF6D
:10051000EEEFF0E0E2EEF7EDFBE920EAEEFDF4F4B9
:10052000E8F6E8E5EDF220F2EEEAE0282529000001
:1005300000000000000000000000000000000000BB
:1005400000000000000000000000000000000000AB
:10055000000000000000000000000000000000009B
:100560000000000000000000000000001800000073
:1005700004FF010000010000C2F2EEF0EEE920EFFE
:10058000EEEFF0E0E2EEF7EDFBE920EAEEFDF4F449
:10059000E8F6E8E5EDF220F2EEEAE0282529000091
:1005A000000000000000000000000000000000004B
:1005B000000000000000000000000000000000003B
:1005C000000000000000000000000000000000002B
:1005D0000000000000000000000000001A00000001
:1005E00004FF010000010000D2F0E5F2E8E920EF8D
:1005F000EEEFF0E0E2EEF7EDFBE920EAEEFDF4F4D9
:10060000E8F6E8E5EDF220F2EEEAE0282529000020
:1006100000000000000000000000000000000000DA
:1006200000000000000000000000000000000000CA
:1006300000000000000000000000000000000000BA
:100640000000000000000000000000001C0000008E
:1006500004FF010000010000D7E5F2E2E5F0F2FB43
:10066000E920EFEEEFF0E0E2EEF7EDFBE920EAEE55
:10067000FDF4F4E8F6E8E5EDF220F2EEEAE02825F4
:100680002900000000000000000000000000000041
:10069000000000000000000000000000000000005A
:1006A000000000000000000000000000000000004A
:1006B0000000000000000000000000001E0000001C
:1006C00004FF010000010000C0E2E0F0E8E9EDE015
:1006D000FF20F3F1F2E0E2EAE020EEF2EDEEF1E8E5
:1006E000F2E5EBFCEDEE2049EDEEEC2825290000CB
:1006F00000000000000000000000000000000000FA
:1007000000000000000000000000000000000000E9
:1007100000000000000000000000000000000000D9
:1007200000000000000000000000000020000000A9
:1007300001FF010000010000CFF0EEF6E5EDF22030
:10074000EEF2EDEEF1E8F2E5EBFCEDEE20E0E2E0BA
:10075000F0E8E9EDEEE3EE20F1F7E5F2F7E8EAE0A4
:1007600020DDD2D02C20EFEEE7E2EEEBFFFEF9E841
:10077000E920E2EEE7EEE1EDEEE2E8F2FC20F0E067
:10078000E1EEF2F3000000000000000000000000B5
:100790000000000000000000000000002100000038
:1007A00001FF010000010000C0E2E0F0E8E9EDE037
:1007B000FF20F3F1F2E0E2EAE020EFEE20E2F0E5E4
:1007C000ECE5EDE828F12900000000000000000041
:1007D0000000000000000000000000000000000019
:1007E0000000000000000000000000000000000009
:1007F00000000000000000000000000000000000F9
:1008000000000000000000000000000022000000C6
:1008100001FF010000010000CDE0EBE8F7E8E52072
:10082000E2EDE5F8EDE5E3EE20EEF5EBE0E6E4E5FC
:10083000EDE8FF3A20302DEDE5F22C20312DE5F1E9
:10084000F2FC20000000000000000000000000009A
:100850000000000000000000000000000000000098
:100860000000000000000000000000000000000088
:100870000000000000000000000000002300000055
:1008800001FF010000010000D1EEF1F2EEFFEDE802
:10089000E520E7E0F9E8F2FB3A20302DE2FBEAEB55
:1008A0002C20312DE2EAEB2C20322DF1E1F0EEF19B
:1008B00020F1F7E5F2F7E8EAE02000000000000090
:1008C0000000000000000000000000000000000028
:1008D0000000000000000000000000000000000018
:1008E00000000000000000000000000024000000E4
:1008F00001FF010000010000C4E5E9F1F2F3FEF997
:10090000E5E520E7EDE0F7E5EDE8E520F2EEEAE0E9
:1009100028252920EEF220EDEEEC0000000000007A
:1009200000000000000000000000000000000000C7
:1009300000000000000000000000000000000000B7
:1009400000000000000000000000000000000000A7
:100950000000000000000000000000003400000063
:1009600001FF010000020000C2F0E5ECFF20F3E40B
:10097000E5F0E6E0EDE8FF20E4E5E9F1F2E2F3FE80
:10098000F9E5E3EE20E7EDE0F7E5EDE8FF20F2EE34
:10099000EAE028ECF129000000000000000000005F
:1009A0000000000000000000000000000000000047
:1009B0000000000000000000000000000000000037
:1009C00000000000000000000000000035000000F2
:1009D00001FF0100000200004D617820E7EDE0F723
:1009E000E5EDE8E520F1F7E5F2F7E8EAE020C0CF31
:1009F000C200000000000000000000000000000035
:100A000000000000000000000000000000000000E6
:100A100000000000000000000000000000000000D6
:100A200000000000000000000000000000000000C6
:100A30000000000000000000000000003600000080
:100A400001FF010000020000C2F0E5ECFF20E4E538
:100A5000EAF0E5ECE5EDF2E8F0EEE2E0EDE8FF20AB
:100A6000F1F7E5F2F7E8EAE020C0CFC228ECE8EDC4
:100A7000290000000000000000000000000000004D
:100A80000000000000000000000000000000000066
:100A90000000000000000000000000000000000056
:100AA000000000000000000000000000370000000F
:100AB00001FF010000020000C2E5EBE8F7E8EDE00D
:100AC00020F2EEEAE020EEE1F0FBE2E020F4E0E7E5
:100AD000FB28252920EEF220EDEEEC0000000000BE
:100AE0000000000000000000000000000000000006
:100AF00000000000000000000000000000000000F6
:100B000000000000000000000000000000000000E5
:100B1000000000000000000000000000380000009D
:100B200001FF010000030000C2F0E5ECFF20F3E448
:100B3000E5F0E6E0EDE8FF20EEE1F0FBE2E020F496
:100B4000E0E7FB28ECF129000000000000000000B5
:100B50000000000000000000000000000000000095
:100B60000000000000000000000000000000000085
:100B70000000000000000000000000000000000075
:100B8000000000000000000000000000390000002C
:100B900001FF010000030000C4E8F1E1E0EBE0ED3B
:100BA000F120F2EEEAE028252920EEF220EDEEEC2D
:100BB0000000000000000000000000000000000035
:100BC0000000000000000000000000000000000025
:100BD0000000000000000000000000000000000015
:100BE0000000000000000000000000000000000005
:100BF0000000000000000000000000003A000000BB
:100C000001FF010000030000C2F0E5ECFF20F3E467
:100C1000E5F0E6E0EDE8FF20E4E8F1E1E0EBE0ED0F
:100C2000F1E020F2EEEAE028ECF1290000000000FB
:100C300000000000000000000000000000000000B4
:100C400000000000000000000000000000000000A4
:100C50000000000000000000000000000000000094
:100C60000000000000000000000000003B00000049
:100C700001FF0100000300004D617820E7EDE0F77F
:100C8000E5EDE8E520F1F7E5F2F7E8EAE020C0CF8E
:100C9000C200000000000000000000000000000092
:100CA0000000000000000000000000000000000044
:100CB0000000000000000000000000000000000034
:100CC0000000000000000000000000000000000024
:100CD0000000000000000000000000003C000000D8
:100CE00001FF010000030000C2F0E5ECFF20E4E595
:100CF000EAF0E5ECE5EDF2E8F0EEE2E0EDE8FF2009
:100D0000F1F7E5F2F7E8EAE020C0CFC228ECE8ED21
:100D100029000000000000000000000000000000AA
:100D200000000000000000000000000000000000C3
:100D300000000000000000000000000000000000B3
:100D40000000000000000000000000003D00000066
:100D500001FF0100000300004D617820E7EDE0F79E
:100D6000E5EDE8E520F1F7E5F2F7E8EAE020C0CFAD
:100D7000C2000000000000000000000000000000B1
:100D80000000000000000000000000000000000063
:100D90000000000000000000000000000000000053
:100DA0000000000000000000000000000000000043
:100DB0000000000000000000000000003E000000F5
:100DC00001FF010000040000C2F0E5ECFF20E4E5B3
:100DD000EAF0E5ECE5EDF2E8F0EEE2E0EDE8FF2028
:100DE000F1F7E5F2F7E8EAE020C0CFC228ECE8ED41
:100DF00029000000000000000000000000000000CA
:100E000000000000000000000000000000000000E2
:100E100000000000000000000000000000000000D2
:100E20000000000000000000000000003F00000083
:100E300001FF010000040000C0EAF2E8E2EDE0FF7B
:100E400020ECEEF9EDEEF1F2FC28C2F229000000F0
:100E50000000000000000000000000000000000092
:100E60000000000000000000000000000000000082
:100E70000000000000000000000000000000000072
:100E80000000000000000000000000000000000062
:100E90000000000000000000000000004000000012
:100EA00001FF010000050000C2F0E5ECFF20F3E4C3
:100EB000E5F0E6E0EDE8FF28F12900000000000081
:100EC0000000000000000000000000000000000022
:100ED0000000000000000000000000000000000012
:100EE0000000000000000000000000000000000002
:100EF00000000000000000000000000000000000F2
:100F000000000000000000000000000041000000A0
:100F100001FF0100000500004D617820E7EDE0F7DA
:100F2000E5EDE8E520F1F7E5F2F7E8EAE020C0CFEB
:100F3000C2000000000000000000000000000000EF
:100F400000000000000000000000000000000000A1
:100F50000000000000000000000000000000000091
:100F60000000000000000000000000000000000081
:100F7000000000000000000000000000420000002F
:100F800001FF010000050000C2F0E5ECFF20E4E5F0
:100F9000EAF0E5ECE5EDF2E8F0EEE2E0EDE8FF2066
:100FA000F1F7E5F2F7E8EAE020C0CFC228ECE8ED7F
:100FB0002900000000000000000000000000000008
:100FC0000000000000000000000000000000000021
:100FD0000000000000000000000000000000000011
:100FE00000000000000000000000000043000000BE
:100FF00001FF0100000500004D617820E7EDE0F7FA
:10100000E5EDE8E520F1F7E5F2F7E8EAE020C0CF0A
:10101000C20000000000000000000000000000000E
:1010200000000000000000000000000000000000C0
:1010300000000000000000000000000000000000B0
:1010400000000000000000000000000000000000A0
:10105000000000000000000000000000440000004C
:1010600001FF010000010000C2F0E5ECFF20E4E513
:10107000EAF0E5ECE5EDF2E8F0EEE2E0EDE8FF2085
:10108000F1F7E5F2F7E8EAE020C0CFC228ECE8ED9E
:101090002900000000000000000000000000000027
:1010A0000000000000000000000000000000000040
:1010B0000000000000000000000000000000000030
:1010C00000000000000000000000000045000000DB
:1010D00001FF0100000100004D617820E7EDE0F71D
:1010E000E5EDE8E520F1F7E5F2F7E8EAE020C0CF2A
:1010F000C20000000000000000000000000000002E
:1011000000000000000000000000000000000000DF
:1011100000000000000000000000000000000000CF
:1011200000000000000000000000000000000000BF
:101130000000000000000000000000004600000069
:1011400001FF010000060000C2F0E5ECFF20E4E52D
:10115000EAF0E5ECE5EDF2E8F0EEE2E0EDE8FF20A4
:10116000F1F7E5F2F7E8EAE020C0CFC228ECE8EDBD
:101170002900000000000000000000000000000046
:10118000000000000000000000000000000000005F
:10119000000000000000000000000000000000004F
:1011A00000000000000000000000000047000000F8
:1011B00001FF010000060000D0E0E7F0E5F8E5EDF2
:1011C000E8E520F0E0E1EEF2FB20E220FDF2EEECBB
:1011D00020F0E5E6E8ECE5283E302DF0E0E7F0E52C
:1011E000F8E5EDEE2900000000000000000000001E
:1011F00000000000000000000000000000000000EF
:1012000000000000000000000000000000000000DE
:101210000000000000000000000000004800000086
:1012200001FF010000060000CDE0EFF0FFE6E5ED74
:10123000E8E520E4EBFF20EFE5F0E5F5EEE4E02063
:10124000E220F0E5E6E8EC20D0D4D728F4E8EAF193
:10125000E8F0EEE2E0EDEDEEE920F7E0F1F2EEF29B
:10126000FB2928C229000000000000000000000047
:10127000000000000000000000000000000000006E
:101280000000000000000000000000004900000015
:1012900001FF010000060000C2F0E5ECFF20F3E4CE
:1012A000E5F0E6E0EDE8FF20EDE0EFF0FFE6E5ED4C
:1012B000E8FF28ECF1290000000000000000000019
:1012C000000000000000000000000000000000001E
:1012D000000000000000000000000000000000000E
:1012E00000000000000000000000000000000000FE
:1012F0000000000000000000000000004A000000A4
:1013000001FF010000060000D0E0E7ECE0F520312D
:101310003030C3F620E3E0F0ECEEEDE8EAE820E45C
:10132000EBFF20EFE5F0E5F5EEE4E020E220D0D49D
:10133000D728C229000000000000000000000000C3
:10134000000000000000000000000000000000009D
:10135000000000000000000000000000000000008D
:101360000000000000000000000000004B00000032
:1013700001FF010000060000C2F0E5ECFF20F3E4ED
:10138000E5F0E6E0EDE8FF20F0E0E7ECE0F5E02056
:10139000313030C3F620E3E0F0ECEEEDE8EAE82887
:1013A000ECF1290000000000000000000000000037
:1013B000000000000000000000000000000000002D
:1013C000000000000000000000000000000000001D
:1013D0000000000000000000000000004C000000C1
:1013E00001FF0100000600004D617820F7E0F1F2F6
:1013F000EEF2E020E220F0E5E6E8ECE520D0D4D7FC
:1014000028C3F629000000000000000000000000D2
:1014100000000000000000000000000000000000CC
:1014200000000000000000000000000000000000BC
:1014300000000000000000000000000000000000AC
:101440000000000000000000000000004D0000004F
:1014500001FF010000060000CAEEEB2DE2EE20EFD6
:10146000EEEFFBF2EEEA20E2FBF5EEE4E020E8E747
:1014700020D0D4D728302DF1F0E0E7F320EFE5F0CD
:10148000E5F5EEE420E220E0E2E0F0E8FE290000ED
:10149000000000000000000000000000000000004C
:1014A000000000000000000000000000000000003C
:1014B0000000000000000000000000004E000000DE
:1014C00001FF010000060000CFE5F0E8EEE4E8F7D8
:1014D000EDEEF1F2FC20E2FBF5EEE4E020E8E7209F
:1014E000D0D4D728302DEDE520E2FBF5EEE4E8F28C
:1014F000FC2928ECE8ED29000000000000000000B5
:1015000000000000000000000000000000000000DB
:1015100000000000000000000000000000000000CB
:101520000000000000000000000000004F0000006C
:1015300001FF010000060000CFE5F0E8EEE420F135
:10154000E1F0EEF1E020F1F7E5F2F7E8EAE020EF74
:10155000EEEFFBF2EEEA20E2FBF5EEE4E020E8E756
:1015600020D0D4D728302DEDE520F1E1F0E0F1FBDB
:10157000E2E0F2FC2928ECE8ED2920000000000060
:10158000000000000000000000000000000000005B
:1015900000000000000000000000000050000000FB
:1015A00001FF0100000600004D617820E7EDE0F743
:1015B000E5EDE8E520F1F7E5F2F7E8EAE020C0CF55
:1015C000C200000000000000000000000000000059
:1015D000000000000000000000000000000000000B
:1015E00000000000000000000000000000000000FB
:1015F00000000000000000000000000000000000EB
:101600000000000000000000000000005100000089
:1016100001FF010000070000C2F0E5ECFF20E4E557
:10162000EAF0E5ECE5EDF2E8F0EEE2E0EDE8FF20CF
:10163000F1F7E5F2F7E8EAE020C0CFC228ECE8EDE8
:101640002900000000000000000000000000000071
:10165000000000000000000000000000000000008A
:10166000000000000000000000000000000000007A
:101670000000000000000000000000005200000018
:1016800001FF010000070000C0E2E0F0E8E9EDE042
:10169000FF20F2E5ECEFE5F0E0F2F3F0E020EEF20F
:1016A000F1E5EAE020EAEEEDE4E5EDF1E0F2EEF05E
:1016B000EEE22830D1290000000000000000000008
:1016C000000000000000000000000000000000001A
:1016D000000000000000000000000000000000000A
:1016E00000000000000000000000000053000000A7
:1016F00001FF010000070000D2E5ECEFE5F0E0F2A9
:10170000F3F0E020EAEEEDE4E5EDF1E0F2EEF0EEEC
:10171000E22C20E4EEEFF3F1EAE0FEF9E0FF20E254
:10172000EEE7EEE1EDEEE2EBE5EDE8E520F0E0E1FD
:10173000EEF2FB2830D1290000000000000000007C
:101740000000000000000000000000000000000099
:101750000000000000000000000000005400000035
:1017600001FF010000070000C0E2E0F0E8E9EDE061
:10177000FF20F2E5ECEFE5F0E0F2F3F0E020F0E03E
:10178000E4E8E0F2EEF0E02830D1290000000000AB
:101790000000000000000000000000000000000049
:1017A0000000000000000000000000000000000039
:1017B0000000000000000000000000000000000029
:1017C00000000000000000000000000055000000C4
:1017D00001FF010000070000D2E5ECEFE5F0E0F2C8
:1017E000F3F0E020F0E0E4E8E0F2EEF0E02C20E4BA
:1017F000EEEFF3F1EAE0FEF9E0FF20E2EEE7EEE1E2
:10180000EDEEE2EBE5EDE8E520F0E0E1EEF2FB28BD
:1018100030D129000000000000000000000000009E
:1018200000000000000000000000000000000000B8
:101830000000000000000000000000005600000052
:1018400001FF010000070000D7E0F1F2EEF2E02016
:10185000E4EBFF20F3F1F2E0EDEEE2EAE800000055
:101860000000000000000000000000000000000078
:101870000000000000000000000000000000000068
:101880000000000000000000000000000000000058
:101890000000000000000000000000000000000048
:1018A00000000000000000000000000064000000D4
:1018B00004FF010000080000D1F2E0E1E8EBE8E7F6
:1018C000E0F6E8FF20EDE0EFF0FFE6E5EDE8FF28C9
:1018D0003E302DE2EAEB290000000000000000008D
:1018E00000000000000000000000000000000000F8
:1018F00000000000000000000000000000000000E8
:1019000000000000000000000000000000000000D7
:101910000000000000000000000000006600000061
:1019200001FF010000080000CDE0EFF0E0E2EBE590
:10193000EDE8E520E2F0E0F9E5EDE8FF28302DEFF5
:10194000EE20F7E0F1EEE2EEE92C312DEFF0EEF2D1
:10195000E8E2290000000000000000000000000094
:101960000000000000000000000000000000000077
:101970000000000000000000000000000000000067
:1019800000000000000000000000000067000000F0
:1019900001FF010000080000CEF1F2E0EDEEE220D0
:1019A000E4E2E8E3E0F2E5EBFF20EFEE20ECEEE42A
:1019B000E1E0F120E220F0E5E6E8ECE520D7D0DD3B
:1019C000CF283E3029000000000000000000000089
:1019D0000000000000000000000000000000000007
:1019E00000000000000000000000000000000000F7
:1019F000000000000000000000000000680000007F
:101A000001FF010000080000C7E0E4E5F0E6EAE0BD
:101A100020EDE020E2EAEBFEF7E5EDE8E820EFEE6E
:101A2000F1EBE520E0E2E0F0E8E820E220F0E5E696
:101A3000E8ECE0F520D7D0DDCF20E820CACF28F1B0
:101A4000290000000000000000000000000000006D
:101A50000000000000000000000000000000000086
:101A6000000000000000000000000000690000000D
:101A700001FF010000080000C7E0E4E5F0E6EAE04D
:101A800020EFE5F0E5E420EFF3F1EAEEEC20E220D0
:101A9000F0E5E6E8ECE520CACF28F12900000000D7
:101AA0000000000000000000000000000000000036
:101AB0000000000000000000000000000000000026
:101AC0000000000000000000000000000000000016
:101AD0000000000000000000000000006A0000009C
:101AE00001FF010000080000D1E1F0EEF120E0E28A
:101AF000E0F0E8E9283E3029000000000000000086
:101B000000000000000000000000000000000000D5
:101B100000000000000000000000000000000000C5
:101B200000000000000000000000000000000000B5
:101B300000000000000000000000000000000000A5
:101B40000000000000000000000000006B0000002A
:101B500001FF010000080000C0E2F2EEEDEEECED46
:101B6000FBE920F0E5E6E8EC20F0E0E1EEF2FB3AFC
:101B700020302DD7D0DDCF2C20312DCACF00000052
:101B80000000000000000000000000000000000055
:101B90000000000000000000000000000000000045
:101BA0000000000000000000000000000000000035
:101BB0000000000000000000000000006C000000B9
:101BC00001FF010000080000D2E5ECEFE5F0E0F2D3
:101BD000F3F0E020E2EAEB20E2E5EDF2E8EBFFF2E1
:101BE000EEF0EEE220E820D2D3332830D1290000F5
:101BF00000000000000000000000000000000000E5
:101C000000000000000000000000000000000000D4
:101C100000000000000000000000000000000000C4
:101C20000000000000000000000000006E00000046
:101C300001FF010000080000C3E8F1F2E5F0E5E76C
:101C4000E8F120F2E5ECEFE5F0E0F2F3F0FB20E262
:101C5000EAEB2FE2FBEAEB20E2E5EDF2E8EBFFF244
:101C6000EEF0EEE220E820D2D3332830D129000074
:101C70000000000000000000000000000000000064
:101C80000000000000000000000000000000000054
:101C90000000000000000000000000006F000000D5
:101CA00001FF010000080000D0E5E6E8EC20EEF2BC
:101CB000EBE0E4EEF7EDEEE3EE20EFEEF0F2E03AEB
:101CC00030202D20EEF2EBE0E4EAE02C2031202D54
:101CD000204D6F6442757320536C6176650000007F
:101CE00000000000000000000000000000000000F4
:101CF00000000000000000000000000000000000E4
:101D00000000000000000000000000002A010000A8
:101D100001FF010000080000CDEEECE5F020EAEE46
:101D2000EDF2E5EAF1F2E020EFEEF1EBE520EFF382
:101D3000F1EAE028312D3130292C2030209720EF96
:101D4000F3F1EAEEE2EEE920E820F0E0E1EEF7E878
:101D5000E920EAEEEDF2E5EAF1F220F1EEE2EFE061
:101D6000E4E0FEF2000000000000000000000000BF
:101D700000000000000000000000000084000000DF
:101D800001FF010000080000CFF0E5E4E5EBFCED09
:101D9000EE20E4EEEFF3F1F2E8ECEEE520F3E2E51D
:101DA000EBE8F7E5EDE8E520F7E0F1F2EEF2FB28ED
:101DB000C3F6290000000000000000000000000041
:101DC0000000000000000000000000000000000013
:101DD0000000000000000000000000000000000003
:101DE0000000000000000000000000007000000083
:101DF00001FF010000090000C2E5EBE8F7E8EDE0B3
:101E000020F1F2E0E1E8EBE8E7E0F6E8E820ECEECC
:101E1000F9EDEEF1F2E82028C2F2290000000000FE
:101E200000000000000000000000000000000000B2
:101E300000000000000000000000000000000000A2
:101E40000000000000000000000000000000000092
:101E50000000000000000000000000007200000010
:101E600004FF010000090000CFF0EEEFEEF0F6E80D
:101E7000EEEDE0EBFCEDFBE920EAEEFDF4F4E8F634
:101E8000E8E5EDF2000000000000000000000000A6
:101E90000000000000000000000000000000000042
:101EA0000000000000000000000000000000000032
:101EB0000000000000000000000000000000000022
:101EC000000000000000000000000000740000009E
:101ED00004FF010000090000C8EDF2E5E3F0E0EBCB
:101EE000FCEDFBE920EAEEFDF4F4E8F6E8E5EDF2BE
:101EF00000000000000000000000000000000000E2
:101F000000000000000000000000000000000000D1
:101F100000000000000000000000000000000000C1
:101F200000000000000000000000000000000000B1
:101F3000000000000000000000000000760000002B
:101F400004FF010000090000C4E8F4F4E5F0E5ED49
:101F5000F6E8E0EBFCEDFBE920EAEEFDF4F4E8F650
:101F6000E8E5EDF2000000000000000000000000C5
:101F70000000000000000000000000000000000061
:101F80000000000000000000000000000000000051
:101F90000000000000000000000000000000000041
:101FA00000000000000000000000000078000000B9
:101FB00004FF010000090000CEE3F0E0EDE8F7E5E2
:101FC000EDE8E520EDE0204D617820E8E7ECE5ED77
:101FD000E5EDE8E520F4E0E7FB20EDE0EFF0FFE6DB
:101FE000E5EDE8FF00000000000000000000000038
:101FF00000000000000000000000000000000000E1
:1020000000000000000000000000000000000000D0
:102010000000000000000000000000007A00000046
:1020200004FF010000090000CDE8E6EDE8E920EF3B
:10203000F0E5E4E5EB20EEF2EAEBFEF7E5EDE8FF94
:1020400020CFC8C42DF0E5E3F3EBFFF2EEF0E0287B
:10205000C2F22900000000000000000000000000A3
:102060000000000000000000000000000000000070
:102070000000000000000000000000000000000060
:102080000000000000000000000000007C000000D4
:1020900001FF010000090000C2E5F0F5EDE8E920CC
:1020A000EFF0E5E4E5EB20E2EAEBFEF7E5EDE8FF33
:1020B00020CFC8C42DF0E5E3F3EBFFF2EEF0E0280B
:1020C000C2F2290000000000000000000000000033
:1020D0000000000000000000000000000000000000
:1020E00000000000000000000000000000000000F0
:1020F0000000000000000000000000007D00000063
:1021000001FF010000090000C2E5EBE8F7E8EDE09F
:1021100020E8E3EDEEF0E8F0F3E5ECEEE920E2F59F
:10212000EEE4EDEEE920EEF8E8E1EAE828C2F22973
:10213000000000000000000000000000000000009F
:10214000000000000000000000000000000000008F
:10215000000000000000000000000000000000007F
:1021600000000000000000000000000081000000EE
:1021700001FF010000090000D2EEEA20F3E2E5EBE6
:10218000E8F7E5EDE8FF20F7E0F1F2EEF2FB20F1F1
:10219000F2E0F2EEF0E028C02900000000000000AC
:1021A000000000000000000000000000000000002F
:1021B000000000000000000000000000000000001F
:1021C000000000000000000000000000000000000F
:1021D0000000000000000000000000007E00000081
:1021E00001FF0100000A0000D2EEEA20F3E4E5F06E
:1021F000E6E0EDE8FF20F7E0F1F2EEF2FB20F1F28D
:10220000E0F2EEF0E028C02900000000000000002D
:1022100000000000000000000000000000000000BE
:1022200000000000000000000000000000000000AE
:10223000000000000000000000000000000000009E
:102240000000000000000000000000007F0000000F
:1022500001FF0100000A0000C2F0E5ECFF20F3E4FA
:10226000E5F0E6E0EDE8FF20F1F2E0F0F2EEE2EE7C
:10227000E920F7E0F1F2EEF2FB20F1F2E0F2EEF00D
:10228000E0283E302DE2EAEB2928ECF1290000009D
:10229000000000000000000000000000000000003E
:1022A000000000000000000000000000000000002E
:1022B000000000000000000000000000800000009E
:1022C00001FF0100000A0000C4E5E9F1F2E2F3FEBB
:1022D000F9E5E520EDE0EFF0FFE6E5EDE8E520AB20
:1022E000EFEEE4F5E2E0F2E0BB20E2F0E0F9E0FE40
:1022F000F9E5E3EEF1FF20F0EEF2EEF0E028C2297E
:1023000000000000000000000000000000000000CD
:1023100000000000000000000000000000000000BD
:10232000000000000000000000000000820000002B
:1023300001FF0100000B0000D0E0E7F0E5F8E5ED5B
:10234000E8E520ABEFEEE4F5E2E0F2E0BB20E2F0FE
:10235000E0F9E0FEF9E5E3EEF1FF20F0EEF2EEF059
:10236000E0283E302DE2EAEB2900000000000000EA
:10237000000000000000000000000000000000005D
:10238000000000000000000000000000000000004D
:1023900000000000000000000000000083000000BA
:1023A00001FF0100000B00004D696E20F7E0F1F223
:1023B000EEF2E02C20F1EEEEF2E2206D696E20EDFF
:1023C000E0EFF0FFE6E5EDE8FE20D2C8D23128C309
:1023D000F6290000000000000000000000000000DE
:1023E00000000000000000000000000000000000ED
:1023F00000000000000000000000000000000000DD
:102400000000000000000000000000008C00000040
:1024100001FF0100000C00004D696E20F7E0F1F2B1
:10242000EEF2E02C20F1EEEEF2E2206D696E20ED8E
:10243000E0EFF0FFE6E5EDE8FE20D2C8D23228C397
:10244000F62900000000000000000000000000006D
:10245000000000000000000000000000000000007C
:10246000000000000000000000000000000000006C
:102470000000000000000000000000008D000000CF
:1024800001FF0100000C00004D617820F7E0F1F23F
:10249000EEF2E02C20F1EEEEF2E2206D617820ED1C
:1024A000E0EFF0FFE6E5EDE8FE20D2C8D23128C328
:1024B000F6290000000000000000000000000000FD
:1024C000000000000000000000000000000000000C
:1024D00000000000000000000000000000000000FC
:1024E0000000000000000000000000008E0000005E
:1024F00001FF0100000C00004D617820F7E0F1F2CF
:10250000EEF2E02C20F1EEEEF2E2206D617820EDAB
:10251000E0EFF0FFE6E5EDE8FE20D2C8D23228C3B6
:10252000F62900000000000000000000000000008C
:10253000000000000000000000000000000000009B
:10254000000000000000000000000000000000008B
:102550000000000000000000000000008F000000EC
:1025600001FF0100000C00004D696E20EDE0EFF06E
:10257000FFE6E5EDE8E520D2C8D23128ECC229001B
:10258000000000000000000000000000000000004B
:10259000000000000000000000000000000000003B
:1025A000000000000000000000000000000000002B
:1025B000000000000000000000000000000000001B
:1025C000000000000000000000000000900000007B
:1025D00001FF0100000C00004D696E20EDE0EFF0FE
:1025E000FFE6E5EDE8E520D2C8D23228ECC22900AA
:1025F00000000000000000000000000000000000DB
:1026000000000000000000000000000000000000CA
:1026100000000000000000000000000000000000BA
:1026200000000000000000000000000000000000AA
:102630000000000000000000000000009100000009
:1026400001FF0100000C00004D617820EDE0EFF08B
:10265000FFE6E5EDE8E520D2C8D23128ECC229003A
:10266000000000000000000000000000000000006A
:10267000000000000000000000000000000000005A
:10268000000000000000000000000000000000004A
:10269000000000000000000000000000000000003A
:1026A0000000000000000000000000009200000098
:1026B00001FF0100000C00004D617820EDE0EFF01B
:1026C000FFE6E5EDE8E520D2C8D23228ECC22900C9
:1026D00000000000000000000000000000000000FA
:1026E00000000000000000000000000000000000EA
:1026F00000000000000000000000000000000000DA
:1027000000000000000000000000000000000000C9
:102710000000000000000000000000009300000026
:1027200001FF0100000C0000C2F0E5ECFF20F3F116
:10273000F0E5E4EDE5EDE8FF20D2C8D23128ECF178
:102740002900000000000000000000000000000060
:102750000000000000000000000000000000000079
:102760000000000000000000000000000000000069
:102770000000000000000000000000000000000059
:1027800000000000000000000000000094000000B5
:1027900001FF0100000C0000C2F0E5ECFF20F3F1A6
:1027A000F0E5E4EDE5EDE8FF20D2C8D23228ECF107
:1027B00029000000000000000000000000000000F0
:1027C0000000000000000000000000000000000009
:1027D00000000000000000000000000000000000F9
:1027E00000000000000000000000000000000000E9
:1027F0000000000000000000000000009500000044
:1028000001FF0100000C0000C2F0E5ECFF20F3F135
:10281000F0E5E4EDE5EDE8FF20D2C8D23328ECF195
:10282000290000000000000000000000000000007F
:102830000000000000000000000000000000000098
:102840000000000000000000000000000000000088
:102850000000000000000000000000000000000078
:1028600000000000000000000000000096000000D2
:1028700001FF0100000C0000C2F0E5ECFF20F3F1C5
:10288000F0E5E4EDE5EDE8FF20D2C8D23428ECF124
:10289000290000000000000000000000000000000F
:1028A0000000000000000000000000000000000028
:1028B0000000000000000000000000000000000018
:1028C0000000000000000000000000000000000008
:1028D0000000000000000000000000009700000061
:1028E00001FF0100000C0000C4E6E8F2F2E5F0D0C0
:1028F000E0E7EDE8F6E020D2C8D23128ECC22900AA
:1029000000000000000000000000000000000000C7
:1029100000000000000000000000000000000000B7
:1029200000000000000000000000000000000000A7
:102930000000000000000000000000000000000097
:1029400000000000000000000000000098000000EF
:1029500001FF0100000C0000C4E6E8F2F2E5F0D04F
:10296000E0E7EDE8F6E020D2C8D23228ECC2290038
:102970000000000000000000000000000000000057
:102980000000000000000000000000000000000047
:102990000000000000000000000000000000000037
:1029A0000000000000000000000000000000000027
:1029B000000000000000000000000000990000007E
:1029C00001FF0100000C0000D7F3E2F1F2E2E8F2AF
:1029D000E5EBFCEDEEF1F2FC20D2C8D23128E2208A
:1029E000302C303120C3F629000000000000000028
:1029F00000000000000000000000000000000000D7
:102A000000000000000000000000000000000000C6
:102A100000000000000000000000000000000000B6
:102A20000000000000000000000000009A0000000C
:102A300001FF0100000C0000D7F3E2F1F2E2E8F23E
:102A4000E5EBFCEDEEF1F2FC20D2C8D23228E22018
:102A5000302C303120C3F6290000000000000000B7
:102A60000000000000000000000000000000000066
:102A70000000000000000000000000000000000056
:102A80000000000000000000000000000000000046
:102A90000000000000000000000000009B0000009B
:102AA00001FF0100000C00004D696E20E7EDE0F72A
:102AB000E5EDE8E520E8E7ECE5F0FFE5ECEEE92000
:102AC000E2E5EBE8F7E8EDFB2C20F1EEEEF2E22098
:102AD0006D696E20EDE0EFF0FFE6E5EDE8FE2041E8
:102AE0004F3128ECC2290000000000000000000067
:102AF00000000000000000000000000000000000D6
:102B0000000000000000000000000000A000000025
:102B100004FF0100000D00004D696E20E7EDE0F7B5
:102B2000E5EDE8E520E8E7ECE5F0FFE5ECEEE9208F
:102B3000E2E5EBE8F7E8EDFB2C20F1EEEEF2E22027
:102B40006D696E20EDE0EFF0FFE6E5EDE8FE204177
:102B50004F3228ECC22900000000000000000000F5
:102B60000000000000000000000000000000000065
:102B7000000000000000000000000000A2000000B3
:102B800004FF0100000D00004D617820E7EDE0F743
:102B9000E5EDE8E520E8E7ECE5F0FFE5ECEEE9201F
:102BA000E2E5EBE8F7E8EDFB2C20F1EEEEF2E220B7
:102BB0006D617820EDE0EFF0FFE6E5EDE8FE204105
:102BC0004F3128ECC2290000000000000000000086
:102BD00000000000000000000000000000000000F5
:102BE000000000000000000000000000A400000041
:102BF00004FF0100000D00004D617820E7EDE0F7D3
:102C0000E5EDE8E520E8E7ECE5F0FFE5ECEEE920AE
:102C1000E2E5EBE8F7E8EDFB2C20F1EEEEF2E22046
:102C20006D617820EDE0EFF0FFE6E5EDE8FE204194
:102C30004F3228ECC2290000000000000000000014
:102C40000000000000000000000000000000000084
:102C5000000000000000000000000000A6000000CE
:102C600004FF0100000D00004D696E20EDE0EFF063
:102C7000FFE6E5EDE8E520414F3128ECC2290000F0
:102C80000000000000000000000000000000000044
:102C90000000000000000000000000000000000034
:102CA0000000000000000000000000000000000024
:102CB0000000000000000000000000000000000014
:102CC000000000000000000000000000A80000005C
:102CD00001FF0100000D00004D696E20EDE0EFF0F6
:102CE000FFE6E5EDE8E520414F3228ECC22900007F
:102CF00000000000000000000000000000000000D4
:102D000000000000000000000000000000000000C3
:102D100000000000000000000000000000000000B3
:102D200000000000000000000000000000000000A3
:102D3000000000000000000000000000A9000000EA
:102D400001FF0100000D00004D617820EDE0EFF083
:102D5000FFE6E5EDE8E520414F3128ECC22900000F
:102D60000000000000000000000000000000000063
:102D70000000000000000000000000000000000053
:102D80000000000000000000000000000000000043
:102D90000000000000000000000000000000000033
:102DA000000000000000000000000000AA00000079
:102DB00001FF0100000D00004D617820EDE0EFF013
:102DC000FFE6E5EDE8E520414F3228ECC22900009E
:102DD00000000000000000000000000000000000F3
:102DE00000000000000000000000000000000000E3
:102DF00000000000000000000000000000000000D3
:102E000000000000000000000000000000000000C2
:102E1000000000000000000000000000AB00000007
:102E200001FF0100000D0000C8F1F2EEF7EDE8EA45
:102E300020F1E8E3EDE0EBE020414F313A20302D86
:102E4000E2FBEAEB2C20312D46E2FBF52C20322D63
:102E5000EEE12FECE8ED2C20332D50E0EAF22C20AF
:102E6000342DF2E5EAF3F9E8E920ECEEECE5EDF2D9
:102E70000000000000000000000000000000000052
:102E8000000000000000000000000000AC00000096
:102E900001FF0100000D0000C8F1F2EEF7EDE8EAD5
:102EA00020F1E8E3EDE0EBE020414F323A20302D15
:102EB000E2FBEAEB2C20312D46E2FBF52C20322DF3
:102EC000EEE12FECE8ED2C20332D50E0EAF22C203F
:102ED000342DF2E5EAF3F9E8E920ECEEECE5EDF269
:102EE00000000000000000000000000000000000E2
:102EF000000000000000000000000000AD00000025
:102F000001FF0100000D0000D2C8C8310000000020
:102F100000000000000000000000000000000000B1
:102F200000000000000000000000000000000000A1
:102F30000000000000000000000000000000000091
:102F40000000000000000000000000000000000081
:102F50000000000000000000000000000000000071
:102F6000000000000000000000000000B4000000AD
:102F700001FF0100000E0000D2C8C83200000000AE
:102F80000000000000000000000000000000000041
:102F90000000000000000000000000000000000031
:102FA0000000000000000000000000000000000021
:102FB0000000000000000000000000000000000011
:102FC0000000000000000000000000000000000001
:102FD000000000000000000000000000B50000003C
:102FE00001FF0100000E0000D2C8C833000000003D
:102FF00000000000000000000000000000000000D1
:1030000000000000000000000000000000000000C0
:1030100000000000000000000000000000000000B0
:1030200000000000000000000000000000000000A0
:103030000000000000000000000000000000000090
:10304000000000000000000000000000B6000000CA
:1030500001FF0100000E0000D2C8C83400000000CB
:103060000000000000000000000000000000000060
:103070000000000000000000000000000000000050
:103080000000000000000000000000000000000040
:103090000000000000000000000000000000000030
:1030A0000000000000000000000000000000000020
:1030B000000000000000000000000000B700000059
:1030C00001FF0100000E0000D2C8C835000000005A
:1030D00000000000000000000000000000000000F0
:1030E00000000000000000000000000000000000E0
:1030F00000000000000000000000000000000000D0
:1031000000000000000000000000000000000000BF
:1031100000000000000000000000000000000000AF
:10312000000000000000000000000000B8000000E7
:1031300001FF0100000E0000D2C8C83600000000E8
:10314000000000000000000000000000000000007F
:10315000000000000000000000000000000000006F
:10316000000000000000000000000000000000005F
:10317000000000000000000000000000000000004F
:10318000000000000000000000000000000000003F
:10319000000000000000000000000000B900000076
:1031A00001FF0100000E0000D2C8C8370000000077
:1031B000000000000000000000000000000000000F
:1031C00000000000000000000000000000000000FF
:1031D00000000000000000000000000000000000EF
:1031E00000000000000000000000000000000000DF
:1031F00000000000000000000000000000000000CF
:10320000000000000000000000000000BA00000004
:1032100001FF0100000E0000D2C8C8380000000005
:10322000000000000000000000000000000000009E
:10323000000000000000000000000000000000008E
:10324000000000000000000000000000000000007E
:10325000000000000000000000000000000000006E
:10326000000000000000000000000000000000005E
:10327000000000000000000000000000BB00000093
:1032800001FF0100000E0000D2C8C8390000000094
:10329000000000000000000000000000000000002E
:1032A000000000000000000000000000000000001E
:1032B000000000000000000000000000000000000E
:1032C00000000000000000000000000000000000FE
:1032D00000000000000000000000000000000000EE
:1032E000000000000000000000000000BC00000022
:1032F00001FF0100000E0000D2C8C83130000000FC
:1033000000000000000000000000000000000000BD
:1033100000000000000000000000000000000000AD
:10332000000000000000000000000000000000009D
:10333000000000000000000000000000000000008D
:10334000000000000000000000000000000000007D
:10335000000000000000000000000000BD000000B0
:1033600001FF0100000E0000D2C8C831310000008A
:10337000000000000000000000000000000000004D
:10338000000000000000000000000000000000003D
:10339000000000000000000000000000000000002D
:1033A000000000000000000000000000000000001D
:1033B000000000000000000000000000000000000D
:1033C000000000000000000000000000BE0000003F
:1033D00001FF0100000E0000D2C8C8313200000019
:1033E00000000000000000000000000000000000DD
:1033F00000000000000000000000000000000000CD
:1034000000000000000000000000000000000000BC
:1034100000000000000000000000000000000000AC
:10342000000000000000000000000000000000009C
:10343000000000000000000000000000BF000000CD
:1034400001FF0100000E0000D2C8C83133000000A7
:10345000000000000000000000000000000000006C
:10346000000000000000000000000000000000005C
:10347000000000000000000000000000000000004C
:10348000000000000000000000000000000000003C
:10349000000000000000000000000000000000002C
:1034A000000000000000000000000000C00000005C
:1034B00001FF0100000E0000D2C8C8313400000036
:1034C00000000000000000000000000000000000FC
:1034D00000000000000000000000000000000000EC
:1034E00000000000000000000000000000000000DC
:1034F00000000000000000000000000000000000CC
:1035000000000000000000000000000000000000BB
:10351000000000000000000000000000C1000000EA
:1035200001FF0100000E0000D2C8C83135000000C4
:10353000000000000000000000000000000000008B
:10354000000000000000000000000000000000007B
:10355000000000000000000000000000000000006B
:10356000000000000000000000000000000000005B
:10357000000000000000000000000000000000004B
:10358000000000000000000000000000C200000079
:1035900001FF0100000E0000CDEEECE8EDE0EBFCD9
:1035A000EDFBE920F2EEEA28C0290000000000004F
:1035B000000000000000000000000000000000000B
:1035C00000000000000000000000000000000000FB
:1035D00000000000000000000000000000000000EB
:1035E00000000000000000000000000000000000DB
:1035F000000000000000000000000000C800000003
:1036000004FF0100000F0000D2EEEA20F5EEEBEE21
:10361000F1F2EEE3EE20F5EEE4E028C02900000030
:10362000000000000000000000000000000000009A
:10363000000000000000000000000000000000008A
:10364000000000000000000000000000000000007A
:10365000000000000000000000000000000000006A
:10366000000000000000000000000000CA00000090
:1036700004FF0100000F0000CDEEECE8EDE0EBFCF4
:10368000EDE0FF20F1EAEEF0EEF1F2FC28EEE12FA2
:10369000ECE8ED2900000000000000000000000040
:1036A000000000000000000000000000000000001A
:1036B000000000000000000000000000000000000A
:1036C00000000000000000000000000000000000FA
:1036D000000000000000000000000000CC0000001E
:1036E00004FF0100000F0000CDEEECE8EDE0EBFC84
:1036F000EDE0FF20F7E0F1F2EEF2E028C3F629005A
:1037000000000000000000000000000000000000B9
:1037100000000000000000000000000000000000A9
:103720000000000000000000000000000000000099
:103730000000000000000000000000000000000089
:10374000000000000000000000000000CE000000AB
:1037500004FF0100000F0000CDEEECE8EDE0EBFC13
:10376000EDE0FF20ECEEF9EDEEF1F2FC28C2F229DB
:103770000000000000000000000000000000000049
:103780000000000000000000000000000000000039
:103790000000000000000000000000000000000029
:1037A0000000000000000000000000000000000019
:1037B000000000000000000000000000D000000039
:1037C00004FF0100000F0000CACFC420E4E2E8E3D8
:1037D000E0F2E5EBFF000000000000000000000048
:1037E00000000000000000000000000000000000D9
:1037F00000000000000000000000000000000000C9
:1038000000000000000000000000000000000000B8
:1038100000000000000000000000000000000000A8
:10382000000000000000000000000000D2000000C6
:1038300004FF0100000F00004D696E20F7E0F1F277
:10384000EEF2E020E4EBFF20F3F1F2E0EDEEE2EA4D
:10385000E820466D696E28C3F629000000000000CC
:103860000000000000000000000000000000000058
:103870000000000000000000000000000000000048
:103880000000000000000000000000000000000038
:10389000000000000000000000000000D400000054
:1038A00004FF0100000F00004D617820F7E0F1F205
:1038B000EEF2E020E4EBFF20F3F1F2E0EDEEE2EADD
:1038C000E820466D617828C3F6290000000000005A
:1038D00000000000000000000000000000000000E8
:1038E00000000000000000000000000000000000D8
:1038F00000000000000000000000000000000000C8
:10390000000000000000000000000000D6000000E1
:1039100004FF0100000F0000CAEEEBE8F7E5F1F24A
:10392000E2EE20EFEEEBFEF1EEE200000000000020
:103930000000000000000000000000000000000087
:103940000000000000000000000000000000000077
:103950000000000000000000000000000000000067
:103960000000000000000000000000000000000057
:10397000000000000000000000000000280100001E
:1039800001FF0100000F0000D7E0F1F2EEF2E020AD
:10399000D8C8CC2028322D313020EAC3F6290000C7
:1039A0000000000000000000000000000000000017
:1039B0000000000000000000000000000000000007
:1039C00000000000000000000000000000000000F7
:1039D00000000000000000000000000000000000E7
:1039E00000000000000000000000000029010000AD
:1039F00001FF0100000F0000D5E0F0E0EAF2E5F081
:103A0000E8F1F2E8EAE0205528662920B9313A20A9
:103A10002520EDE0EFF0FFE6E5EDE8FF20EEF220F7
:103A2000333830C220E220F2EEF7EAE520466D6935
:103A30006E00000000000000000000000000000018
:103A40000000000000000000000000000000000076
:103A5000000000000000000000000000D80000008E
:103A600004FF010000100000D5E0F0E0EAF2E5F00C
:103A7000E8F1F2E8EAE0205528662920B9323A2038
:103A80002520EDE0EFF0FFE6E5EDE8FF20EEF22087
:103A9000333830C220E220F2EEF7EAE520466D69C5
:103AA0006E000000000000000000000000000000A8
:103AB0000000000000000000000000000000000006
:103AC000000000000000000000000000E000000016
:103AD00004FF010000100000D5E0F0E0EAF2E5F09C
:103AE000E8F1F2E8EAE0205528662920B9333A20C7
:103AF0002520EDE0EFF0FFE6E5EDE8FF20EEF22017
:103B0000333830C220E220F2EEF7EAE520466D6954
:103B10006E00000000000000000000000000000037
:103B20000000000000000000000000000000000095
:103B3000000000000000000000000000E80000009D
:103B400004FF010000100000D5E0F0E0EAF2E5F02B
:103B5000E8F1F2E8EAE0205528662920B9343A2055
:103B60002520EDE0EFF0FFE6E5EDE8FF20EEF220A6
:103B7000333830C220E220F2EEF7EAE520466D69E4
:103B80006E000000000000000000000000000000C7
:103B90000000000000000000000000000000000025
:103BA000000000000000000000000000F000000025
:103BB00004FF010000100000D5E0F0E0EAF2E5F0BB
:103BC000E8F1F2E8EAE0205528662920B9353A20E4
:103BD0002520EDE0EFF0FFE6E5EDE8FF20EEF22036
:103BE000333830C220E220F2EEF7EAE520466D6974
:103BF0006E00000000000000000000000000000057
:103C000000000000000000000000000000000000B4
:103C1000000000000000000000000000F8000000AC
:103C200004FF010000100000D5E0F0E0EAF2E5F04A
:103C3000E8F1F2E8EAE0205528662920B9363A2072
:103C40002520EDE0EFF0FFE6E5EDE8FF20EEF220C5
:103C5000333830C220E220F2EEF7EAE520466D6903
:103C60006E000000000000000000000000000000E6
:103C70000000000000000000000000000000000044
:103C80000000000000000000000000000001000033
:103C900004FF010000100000D5E0F0E0EAF2E5F0DA
:103CA000E8F1F2E8EAE0205528662920B9373A2001
:103CB0002520EDE0EFF0FFE6E5EDE8FF20EEF22055
:103CC000333830C220E220F2EEF7EAE520466D6993
:103CD0006E00000000000000000000000000000076
:103CE00000000000000000000000000000000000D4
:103CF00000000000000000000000000008010000BB
:103D000004FF010000100000D5E0F0E0EAF2E5F069
:103D1000E8F1F2E8EAE0205528662920B9383A208F
:103D20002520EDE0EFF0FFE6E5EDE8FF20EEF220E4
:103D3000333830C220E220F2EEF7EAE520466D6922
:103D40006E00000000000000000000000000000005
:103D50000000000000000000000000000000000063
:103D60000000000000000000000000001001000042
:103D700004FF010000100000D5E0F0E0EAF2E5F0F9
:103D8000E8F1F2E8EAE0205528662920B9393A201E
:103D90002520EDE0EFF0FFE6E5EDE8FF20EEF22074
:103DA000333830C220E220F2EEF7EAE520466D69B2
:103DB0006E00000000000000000000000000000095
:103DC00000000000000000000000000000000000F3
:103DD00000000000000000000000000018010000CA
:103DE00004FF010000100000D5E0F0E0EAF2E5F089
:103DF000E8F1F2E8EAE0205528662920B931303AA6
:103E0000202520EDE0EFF0FFE6E5EDE8FF20EEF203
:103E100020333830C220E220F2EEF7EAE520466D8A
:103E2000696E0000000000000000000000000000BB
:103E30000000000000000000000000000000000082
:103E40000000000000000000000000002001000051
:103E500004FF010000100000D5E0F0E0EAF2E5F018
:103E6000E8F1F2E8EAE0205528662920B9313A2045
:103E70002520EDE0EFF0FFE6E5EDE8FF20EEF22093
:103E8000333830C220E220F2EEF7EAE520466D69D1
:103E90006420ECE5E6E4F320466D696E20E82046F8
:103EA0006D617800000000000000000000000000CC
:103EB000000000000000000000000000DA00000028
:103EC00004FF010000110000D5E0F0E0EAF2E5F0A7
:103ED000E8F1F2E8EAE0205528662920B9323A20D4
:103EE0002520EDE0EFF0FFE6E5EDE8FF20EEF22023
:103EF000333830C220E220F2EEF7EAE520466D6961
:103F00006420ECE5E6E4F320466D696E20E8204687
:103F10006D6178000000000000000000000000005B
:103F2000000000000000000000000000E2000000AF
:103F300004FF010000110000D5E0F0E0EAF2E5F036
:103F4000E8F1F2E8EAE0205528662920B9333A2062
:103F50002520EDE0EFF0FFE6E5EDE8FF20EEF220B2
:103F6000333830C220E220F2EEF7EAE520466D69F0
:103F70006420ECE5E6E4F320466D696E20E8204617
:103F80006D617800000000000000000000000000EB
:103F9000000000000000000000000000EA00000037
:103FA00004FF010000110000D5E0F0E0EAF2E5F0C6
:103FB000E8F1F2E8EAE0205528662920B9343A20F1
:103FC0002520EDE0EFF0FFE6E5EDE8FF20EEF22042
:103FD000333830C220E220F2EEF7EAE520466D6980
:103FE0006420ECE5E6E4F320466D696E20E82046A7
:103FF0006D6178000000000000000000000000007B
:10400000000000000000000000000000F2000000BE
:1040100004FF010000110000D5E0F0E0EAF2E5F055
:10402000E8F1F2E8EAE0205528662920B9353A207F
:104030002520EDE0EFF0FFE6E5EDE8FF20EEF220D1
:10404000333830C220E220F2EEF7EAE520466D690F
:104050006420ECE5E6E4F320466D696E20E8204636
:104060006D6178000000000000000000000000000A
:10407000000000000000000000000000FA00000046
:1040800004FF010000110000D5E0F0E0EAF2E5F0E5
:10409000E8F1F2E8EAE0205528662920B9363A200E
:1040A0002520EDE0EFF0FFE6E5EDE8FF20EEF22061
:1040B000333830C220E220F2EEF7EAE520466D699F
:1040C0006420ECE5E6E4F320466D696E20E82046C6
:1040D0006D6178000000000000000000000000009A
:1040E00000000000000000000000000002010000CD
:1040F00004FF010000110000D5E0F0E0EAF2E5F075
:10410000E8F1F2E8EAE0205528662920B9373A209C
:104110002520EDE0EFF0FFE6E5EDE8FF20EEF220F0
:10412000333830C220E220F2EEF7EAE520466D692E
:104130006420ECE5E6E4F320466D696E20E8204655
:104140006D61780000000000000000000000000029
:104150000000000000000000000000000A01000054
:1041600004FF010000110000D5E0F0E0EAF2E5F004
:10417000E8F1F2E8EAE0205528662920B9383A202B
:104180002520EDE0EFF0FFE6E5EDE8FF20EEF22080
:10419000333830C220E220F2EEF7EAE520466D69BE
:1041A0006420ECE5E6E4F320466D696E20E82046E5
:1041B0006D617800000000000000000000000000B9
:1041C00000000000000000000000000012010000DC
:1041D00004FF010000110000D5E0F0E0EAF2E5F094
:1041E000E8F1F2E8EAE0205528662920B9393A20BA
:1041F0002520EDE0EFF0FFE6E5EDE8FF20EEF22010
:10420000333830C220E220F2EEF7EAE520466D694D
:104210006420ECE5E6E4F320466D696E20E8204674
:104220006D61780000000000000000000000000048
:104230000000000000000000000000001A01000063
:1042400004FF010000110000D5E0F0E0EAF2E5F023
:10425000E8F1F2E8EAE0205528662920B931303A41
:10426000202520EDE0EFF0FFE6E5EDE8FF20EEF29F
:1042700020333830C220E220F2EEF7EAE520466D26
:10428000696420ECE5E6E4F320466D696E20E820E1
:10429000466D617800000000000000000000000092
:1042A00000000000000000000000000022010000EB
:1042B00004FF010000110000D5E0F0E0EAF2E5F0B3
:1042C000E8F1F2E8EAE0205528662920B9313A20E1
:1042D0002520EDE0EFF0FFE6E5EDE8FF20EEF2202F
:1042E000333830C220E220F2EEF7EAE520466D6175
:1042F0007800000000000000000000000000000046
:1043000000000000000000000000000000000000AD
:10431000000000000000000000000000DC000000C1
:1043200004FF010000120000D5E0F0E0EAF2E5F041
:10433000E8F1F2E8EAE0205528662920B9323A206F
:104340002520EDE0EFF0FFE6E5EDE8FF20EEF220BE
:10435000333830C220E220F2EEF7EAE520466D6104
:1043600078000000000000000000000000000000D5
:10437000000000000000000000000000000000003D
:10438000000000000000000000000000E400000049
:1043900004FF010000120000D5E0F0E0EAF2E5F0D1
:1043A000E8F1F2E8EAE0205528662920B9333A20FE
:1043B0002520EDE0EFF0FFE6E5EDE8FF20EEF2204E
:1043C000333830C220E220F2EEF7EAE520466D6194
:1043D0007800000000000000000000000000000065
:1043E00000000000000000000000000000000000CD
:1043F000000000000000000000000000EC000000D1
:1044000004FF010000120000D5E0F0E0EAF2E5F060
:10441000E8F1F2E8EAE0205528662920B9343A208C
:104420002520EDE0EFF0FFE6E5EDE8FF20EEF220DD
:10443000333830C220E220F2EEF7EAE520466D6123
:1044400078000000000000000000000000000000F4
:10445000000000000000000000000000000000005C
:10446000000000000000000000000000F400000058
:1044700004FF010000120000D5E0F0E0EAF2E5F0F0
:10448000E8F1F2E8EAE0205528662920B9353A201B
:104490002520EDE0EFF0FFE6E5EDE8FF20EEF2206D
:1044A000333830C220E220F2EEF7EAE520466D61B3
:1044B0007800000000000000000000000000000084
:1044C00000000000000000000000000000000000EC
:1044D000000000000000000000000000FC000000E0
:1044E00004FF010000120000D5E0F0E0EAF2E5F080
:1044F000E8F1F2E8EAE0205528662920B9363A20AA
:104500002520EDE0EFF0FFE6E5EDE8FF20EEF220FC
:10451000333830C220E220F2EEF7EAE520466D6142
:104520007800000000000000000000000000000013
:10453000000000000000000000000000000000007B
:104540000000000000000000000000000401000066
:1045500004FF010000120000D5E0F0E0EAF2E5F00F
:10456000E8F1F2E8EAE0205528662920B9373A2038
:104570002520EDE0EFF0FFE6E5EDE8FF20EEF2208C
:10458000333830C220E220F2EEF7EAE520466D61D2
:1045900078000000000000000000000000000000A3
:1045A000000000000000000000000000000000000B
:1045B0000000000000000000000000000C010000EE
:1045C00004FF010000120000D5E0F0E0EAF2E5F09F
:1045D000E8F1F2E8EAE0205528662920B9383A20C7
:1045E0002520EDE0EFF0FFE6E5EDE8FF20EEF2201C
:1045F000333830C220E220F2EEF7EAE520466D6162
:104600007800000000000000000000000000000032
:10461000000000000000000000000000000000009A
:104620000000000000000000000000001401000075
:1046300004FF010000120000D5E0F0E0EAF2E5F02E
:10464000E8F1F2E8EAE0205528662920B9393A2055
:104650002520EDE0EFF0FFE6E5EDE8FF20EEF220AB
:10466000333830C220E220F2EEF7EAE520466D61F1
:1046700078000000000000000000000000000000C2
:10468000000000000000000000000000000000002A
:104690000000000000000000000000001C010000FD
:1046A00004FF010000120000D5E0F0E0EAF2E5F0BE
:1046B000E8F1F2E8EAE0205528662920B931303ADD
:1046C000202520EDE0EFF0FFE6E5EDE8FF20EEF23B
:1046D00020333830C220E220F2EEF7EAE520466DC2
:1046E00061780000000000000000000000000000F1
:1046F00000000000000000000000000000000000BA
:104700000000000000000000000000002401000084
:1047100004FF010000120000D5E0F0E0EAF2E5F04D
:10472000E8F1F2E8EAE0205528662920B9313A207C
:10473000466D696428C3F6290000000000000000EF
:104740000000000000000000000000000000000069
:104750000000000000000000000000000000000059
:104760000000000000000000000000000000000049
:10477000000000000000000000000000DE0000005B
:1047800004FF010000130000D5E0F0E0EAF2E5F0DC
:10479000E8F1F2E8EAE0205528662920B9323A200B
:1047A000466D696428C3F62900000000000000007F
:1047B00000000000000000000000000000000000F9
:1047C00000000000000000000000000000000000E9
:1047D00000000000000000000000000000000000D9
:1047E000000000000000000000000000E6000000E3
:1047F00004FF010000130000D5E0F0E0EAF2E5F06C
:10480000E8F1F2E8EAE0205528662920B9333A2099
:10481000466D696428C3F62900000000000000000E
:104820000000000000000000000000000000000088
:104830000000000000000000000000000000000078
:104840000000000000000000000000000000000068
:10485000000000000000000000000000EE0000006A
:1048600004FF010000130000D5E0F0E0EAF2E5F0FB
:10487000E8F1F2E8EAE0205528662920B9343A2028
:10488000466D696428C3F62900000000000000009E
:104890000000000000000000000000000000000018
:1048A0000000000000000000000000000000000008
:1048B00000000000000000000000000000000000F8
:1048C000000000000000000000000000F6000000F2
:1048D00004FF010000130000D5E0F0E0EAF2E5F08B
:1048E000E8F1F2E8EAE0205528662920B9353A20B7
:1048F000466D696428C3F62900000000000000002E
:1049000000000000000000000000000000000000A7
:104910000000000000000000000000000000000097
:104920000000000000000000000000000000000087
:10493000000000000000000000000000FE00000079
:1049400004FF010000130000D5E0F0E0EAF2E5F01A
:10495000E8F1F2E8EAE0205528662920B9363A2045
:10496000466D696428C3F6290000000000000000BD
:104970000000000000000000000000000000000037
:104980000000000000000000000000000000000027
:104990000000000000000000000000000000000017
:1049A0000000000000000000000000000601000000
:1049B00004FF010000130000D5E0F0E0EAF2E5F0AA
:1049C000E8F1F2E8EAE0205528662920B9373A20D4
:1049D000466D696428C3F62900000000000000004D
:1049E00000000000000000000000000000000000C7
:1049F00000000000000000000000000000000000B7
:104A000000000000000000000000000000000000A6
:104A10000000000000000000000000000E01000087
:104A200004FF010000130000D5E0F0E0EAF2E5F039
:104A3000E8F1F2E8EAE0205528662920B9383A2062
:104A4000466D696428C3F6290000000000000000DC
:104A50000000000000000000000000000000000056
:104A60000000000000000000000000000000000046
:104A70000000000000000000000000000000000036
:104A8000000000000000000000000000160100000F
:104A900004FF010000130000D5E0F0E0EAF2E5F0C9
:104AA000E8F1F2E8EAE0205528662920B9393A20F1
:104AB000466D696428C3F62900000000000000006C
:104AC00000000000000000000000000000000000E6
:104AD00000000000000000000000000000000000D6
:104AE00000000000000000000000000000000000C6
:104AF0000000000000000000000000001E01000097
:104B000004FF010000130000D5E0F0E0EAF2E5F058
:104B1000E8F1F2E8EAE0205528662920B931303A78
:104B2000466D696428C3F6290000000000000000FB
:104B30000000000000000000000000000000000075
:104B40000000000000000000000000000000000065
:104B50000000000000000000000000000000000055
:104B6000000000000000000000000000260100001E
:104B700004FF010000130000CAEEEDF2E5EAF1F2D5
:104B800020310000000000000000000000000000D4
:104B90000000000000000000000000000000000015
:104BA0000000000000000000000000000000000005
:104BB00000000000000000000000000000000000F5
:104BC00000000000000000000000000000000000E5
:104BD0000000000000000000000000009001000044
:104BE00004FF010000140000CAEEEDF2E5EAF1F264
:104BF0002032000000000000000000000000000063
:104C000000000000000000000000000000000000A4
:104C10000000000000000000000000000000000094
:104C20000000000000000000000000000000000084
:104C30000000000000000000000000000000000074
:104C400000000000000000000000000092010000D1
:104C500004FF010000140000CAEEEDF2E5EAF1F2F3
:104C600020330000000000000000000000000000F1
:104C70000000000000000000000000000000000034
:104C80000000000000000000000000000000000024
:104C90000000000000000000000000000000000014
:104CA0000000000000000000000000000000000004
:104CB000000000000000000000000000940100005F
:104CC00004FF010000140000CAEEEDF2E5EAF1F283
:104CD0002034000000000000000000000000000080
:104CE00000000000000000000000000000000000C4
:104CF00000000000000000000000000000000000B4
:104D000000000000000000000000000000000000A3
:104D10000000000000000000000000000000000093
:104D200000000000000000000000000096010000EC
:104D300004FF010000140000CAEEEDF2E5EAF1F212
:104D4000203500000000000000000000000000000E
:104D50000000000000000000000000000000000053
:104D60000000000000000000000000000000000043
:104D70000000000000000000000000000000000033
:104D80000000000000000000000000000000000023
:104D9000000000000000000000000000980100007A
:104DA00004FF010000140000CAEEEDF2E5EAF1F2A2
:104DB000203600000000000000000000000000009D
:104DC00000000000000000000000000000000000E3
:104DD00000000000000000000000000000000000D3
:104DE00000000000000000000000000000000000C3
:104DF00000000000000000000000000000000000B3
:104E00000000000000000000000000009A01000007
:104E100004FF010000140000CAEEEDF2E5EAF1F231
:104E2000203700000000000000000000000000002B
:104E30000000000000000000000000000000000072
:104E40000000000000000000000000000000000062
:104E50000000000000000000000000000000000052
:104E60000000000000000000000000000000000042
:104E70000000000000000000000000009C01000095
:104E800004FF010000140000CAEEEDF2E5EAF1F2C1
:104E900020380000000000000000000000000000BA
:104EA0000000000000000000000000000000000002
:104EB00000000000000000000000000000000000F2
:104EC00000000000000000000000000000000000E2
:104ED00000000000000000000000000000000000D2
:104EE0000000000000000000000000009E01000023
:104EF00004FF010000140000CAEEEDF2E5EAF1F251
:104F00002039000000000000000000000000000048
:104F10000000000000000000000000000000000091
:104F20000000000000000000000000000000000081
:104F30000000000000000000000000000000000071
:104F40000000000000000000000000000000000061
:104F5000000000000000000000000000A0010000B0
:104F600004FF010000140000CAEEEDF2E5EAF1F2E0
:104F700020313000000000000000000000000000B0
:104F80000000000000000000000000000000000021
:104F90000000000000000000000000000000000011
:104FA0000000000000000000000000000000000001
:104FB00000000000000000000000000000000000F1
:104FC000000000000000000000000000A20100003E
:104FD00004FF010000140000CAEEEDF2E5EAF1F270
:104FE0002031000000000000000000000000000070
:104FF00000000000000000000000000000000000B1
:1050000000000000000000000000000000000000A0
:105010000000000000000000000000000000000090
:105020000000000000000000000000000000000080
:10503000000000000000000000000000A4010000CB
:1050400004FF010000150000CAEEEDF2E5EAF1F2FE
:1050500020320000000000000000000000000000FE
:105060000000000000000000000000000000000040
:105070000000000000000000000000000000000030
:105080000000000000000000000000000000000020
:105090000000000000000000000000000000000010
:1050A000000000000000000000000000A601000059
:1050B00004FF010000150000CAEEEDF2E5EAF1F28E
:1050C000203300000000000000000000000000008D
:1050D00000000000000000000000000000000000D0
:1050E00000000000000000000000000000000000C0
:1050F00000000000000000000000000000000000B0
:10510000000000000000000000000000000000009F
:10511000000000000000000000000000A8010000E6
:1051200004FF010000150000CAEEEDF2E5EAF1F21D
:10513000203400000000000000000000000000001B
:10514000000000000000000000000000000000005F
:10515000000000000000000000000000000000004F
:10516000000000000000000000000000000000003F
:10517000000000000000000000000000000000002F
:10518000000000000000000000000000AA01000074
:1051900004FF010000150000CAEEEDF2E5EAF1F2AD
:1051A00020350000000000000000000000000000AA
:1051B00000000000000000000000000000000000EF
:1051C00000000000000000000000000000000000DF
:1051D00000000000000000000000000000000000CF
:1051E00000000000000000000000000000000000BF
:1051F000000000000000000000000000AC01000002
:1052000004FF010000150000CAEEEDF2E5EAF1F23C
:105210002036000000000000000000000000000038
:10522000000000000000000000000000000000007E
:10523000000000000000000000000000000000006E
:10524000000000000000000000000000000000005E
:10525000000000000000000000000000000000004E
:10526000000000000000000000000000AE0100008F
:1052700004FF010000150000CAEEEDF2E5EAF1F2CC
:1052800020370000000000000000000000000000C7
:10529000000000000000000000000000000000000E
:1052A00000000000000000000000000000000000FE
:1052B00000000000000000000000000000000000EE
:1052C00000000000000000000000000000000000DE
:1052D000000000000000000000000000B00100001D
:1052E00004FF010000150000CAEEEDF2E5EAF1F25C
:1052F0002038000000000000000000000000000056
:10530000000000000000000000000000000000009D
:10531000000000000000000000000000000000008D
:10532000000000000000000000000000000000007D
:10533000000000000000000000000000000000006D
:10534000000000000000000000000000B2010000AA
:1053500004FF010000150000CAEEEDF2E5EAF1F2EB
:1053600020390000000000000000000000000000E4
:10537000000000000000000000000000000000002D
:10538000000000000000000000000000000000001D
:10539000000000000000000000000000000000000D
:1053A00000000000000000000000000000000000FD
:1053B000000000000000000000000000B401000038
:1053C00004FF010000150000CAEEEDF2E5EAF1F27B
:1053D000203130000000000000000000000000004C
:1053E00000000000000000000000000000000000BD
:1053F00000000000000000000000000000000000AD
:10540000000000000000000000000000000000009C
:10541000000000000000000000000000000000008C
:10542000000000000000000000000000B6010000C5
:1054300004FF010000150000CAEEEDF2E5EAF1F20A
:10544000203100000000000000000000000000000B
:10545000000000000000000000000000000000004C
:10546000000000000000000000000000000000003C
:10547000000000000000000000000000000000002C
:10548000000000000000000000000000000000001C
:10549000000000000000000000000000B801000053
:1054A00004FF010000160000CAEEEDF2E5EAF1F299
:1054B000203200000000000000000000000000009A
:1054C00000000000000000000000000000000000DC
:1054D00000000000000000000000000000000000CC
:1054E00000000000000000000000000000000000BC
:1054F00000000000000000000000000000000000AC
:10550000000000000000000000000000BA010000E0
:1055100004FF010000160000CAEEEDF2E5EAF1F228
:105520002033000000000000000000000000000028
:10553000000000000000000000000000000000006B
:10554000000000000000000000000000000000005B
:10555000000000000000000000000000000000004B
:10556000000000000000000000000000000000003B
:10557000000000000000000000000000BC0100006E
:1055800004FF010000160000CAEEEDF2E5EAF1F2B8
:1055900020340000000000000000000000000000B7
:1055A00000000000000000000000000000000000FB
:1055B00000000000000000000000000000000000EB
:1055C00000000000000000000000000000000000DB
:1055D00000000000000000000000000000000000CB
:1055E000000000000000000000000000BE010000FC
:1055F00004FF010000160000CAEEEDF2E5EAF1F248
:105600002035000000000000000000000000000045
:10561000000000000000000000000000000000008A
:10562000000000000000000000000000000000007A
:10563000000000000000000000000000000000006A
:10564000000000000000000000000000000000005A
:10565000000000000000000000000000C001000089
:1056600004FF010000160000CAEEEDF2E5EAF1F2D7
:1056700020360000000000000000000000000000D4
:10568000000000000000000000000000000000001A
:10569000000000000000000000000000000000000A
:1056A00000000000000000000000000000000000FA
:1056B00000000000000000000000000000000000EA
:1056C000000000000000000000000000C201000017
:1056D00004FF010000160000CAEEEDF2E5EAF1F267
:1056E0002037000000000000000000000000000063
:1056F00000000000000000000000000000000000AA
:105700000000000000000000000000000000000099
:105710000000000000000000000000000000000089
:105720000000000000000000000000000000000079
:10573000000000000000000000000000C4010000A4
:1057400004FF010000160000CAEEEDF2E5EAF1F2F6
:1057500020380000000000000000000000000000F1
:105760000000000000000000000000000000000039
:105770000000000000000000000000000000000029
:105780000000000000000000000000000000000019
:105790000000000000000000000000000000000009
:1057A000000000000000000000000000C601000032
:1057B00004FF010000160000CAEEEDF2E5EAF1F286
:1057C0002039000000000000000000000000000080
:1057D00000000000000000000000000000000000C9
:1057E00000000000000000000000000000000000B9
:1057F00000000000000000000000000000000000A9
:105800000000000000000000000000000000000098
:10581000000000000000000000000000C8010000BF
:1058200004FF010000160000CAEEEDF2E5EAF1F215
:1058300020313000000000000000000000000000E7
:105840000000000000000000000000000000000058
:105850000000000000000000000000000000000048
:105860000000000000000000000000000000000038
:105870000000000000000000000000000000000028
:10588000000000000000000000000000CA0100004D
:1058900004FF010000160000CAEEEDF2E5EAF1F2A5
:1058A00020310000000000000000000000000000A7
:1058B00000000000000000000000000000000000E8
:1058C00000000000000000000000000000000000D8
:1058D00000000000000000000000000000000000C8
:1058E00000000000000000000000000000000000B8
:1058F000000000000000000000000000CC010000DB
:1059000004FF010000170000CAEEEDF2E5EAF1F233
:105910002032000000000000000000000000000035
:105920000000000000000000000000000000000077
:105930000000000000000000000000000000000067
:105940000000000000000000000000000000000057
:105950000000000000000000000000000000000047
:10596000000000000000000000000000CE01000068
:1059700004FF010000170000CAEEEDF2E5EAF1F2C3
:1059800020330000000000000000000000000000C4
:105990000000000000000000000000000000000007
:1059A00000000000000000000000000000000000F7
:1059B00000000000000000000000000000000000E7
:1059C00000000000000000000000000000000000D7
:1059D000000000000000000000000000D0010000F6
:1059E00004FF010000170000CAEEEDF2E5EAF1F253
:1059F0002034000000000000000000000000000053
:105A00000000000000000000000000000000000096
:105A10000000000000000000000000000000000086
:105A20000000000000000000000000000000000076
:105A30000000000000000000000000000000000066
:105A4000000000000000000000000000D201000083
:105A500004FF010000170000CAEEEDF2E5EAF1F2E2
:105A600020350000000000000000000000000000E1
:105A70000000000000000000000000000000000026
:105A80000000000000000000000000000000000016
:105A90000000000000000000000000000000000006
:105AA00000000000000000000000000000000000F6
:105AB000000000000000000000000000D401000011
:105AC00004FF010000170000CAEEEDF2E5EAF1F272
:105AD0002036000000000000000000000000000070
